:100000000C942A000C947B020C948A020C944700F6
:100010000C9447000C9447000C9447000C94470044
:100020000C9447000C9447000C9447000C94090270
:100030000C9447000C9447000C9447000C94470024
:100040000C9447000C9447000C9447000C94470014
:100050000C94470011241FBECFE5D8E0DEBFCDBF12
:1000600010E0A0E6B0E0EAE9F5E002C005900D92EC
:10007000AE38B107D9F710E0AEE8B0E001C01D928C
:10008000A339B107E1F70E94B8010C94CB020C949C
:100090000000D998982F92959F7090FF02C0DB9A2C
:1000A00001C0DB98982F92959695977090FF02C0AB
:1000B000DC9A01C0DC98982F92959695969593704E
:1000C00090FF02C0DD9A01C0DD98882314F4DE9A07
:1000D00001C0DE98DA9AEFE9FFE03197F1F700C04E
:1000E0000000DA98EFE9FFE03197F1F700C0000077
:1000F00080FF02C0DB9A01C0DB98982F969590FF95
:1001000002C0DC9A01C0DC98982F9695969590FFD6
:1001100002C0DD9A01C0DD9886958695869580FFA0
:1001200002C0DE9A01C0DE98DA9A8FE99FE001975B
:10013000F1F700C00000DA98EFE9FFE03197F1F73E
:1001400000C0000008958AB38E678ABB83E00E94D6
:1001500049008FE79EE30197F1F700C0000083E0BC
:100160000E944900AFE7BEE31197F1F700C000001D
:1001700083E00E9449008FE79EE30197F1F700C0FA
:10018000000082E00E94490088E20E94490088E065
:100190000E94490081E00E94490086E00E944900D7
:1001A0008FEF99EFA0E081509040A040E1F700C0B0
:1001B00000008CE00E9449000895D99A982F9295EA
:1001C0009F7090FF02C0DB9A01C0DB98982F929538
:1001D0009695977090FF02C0DC9A01C0DC98982F2A
:1001E000929596959695937090FF02C0DD9A01C006
:1001F000DD98882314F4DE9A01C0DE98DA9AEFE9DC
:10020000FFE03197F1F700C00000DA98EFE9FFE076
:100210003197F1F700C0000080FF02C0DB9A01C0F7
:10022000DB98982F969590FF02C0DC9A01C0DC986D
:10023000982F9695969590FF02C0DD9A01C0DD98A3
:1002400086958695869580FF02C0DE9A01C0DE986D
:10025000DA9A8FE99FE00197F1F700C00000DA9881
:10026000EFE9FFE03197F1F700C0000008950F9328
:100270001F93CF938C01FC018081882351F0C0E053
:100280000E94DD00CF5FF801EC0FF11D8081882313
:10029000B9F7CF911F910F9108958F929F92AF92CE
:1002A000BF92EF92FF921F93CF93DF93CDB7DEB74C
:1002B0002A970FB6F894DEBF0FBECDBFDC01CB018D
:1002C000AE014F5F5F4F2AE0FA0111922A95E9F7DC
:1002D0000097A105B10521F480E30E94DD0038C03C
:1002E00010E00F2EFAE08F2EF0E09F2EF0E0AF2E00
:1002F000F0E0BF2EF02DE12EFF24E7FCF09421E08A
:1003000030E02C0F3D1FE20EF31EBC01CD01A50114
:1003100094010E94A902605DF7016083822F932FF0
:10032000A42FB52F1F5F0097A105B10521F711502C
:100330007AF0E12FFF27E7FDF09521E030E02C0F68
:100340003D1FE20FF31F80810E94DD00115088F7EE
:100350002A960FB6F894DEBF0FBECDBFDF91CF91C6
:100360001F91FF90EF90BF90AF909F908F90089556
:100370008FB78F778FBF0E94A30081E00E94490052
:1003800080E690E00E94370180EC0E9449008BE6F5
:1003900090E00E9437018FEF99E6A8E181509040EC
:1003A000A040E1F700C0000081E00E94490087E71B
:1003B00090E00E9437018FEF99E6A8E181509040CC
:1003C000A040E1F700C0000085B7816085BF85B718
:1003D000826085BF8BB780648BBF85B7846085BF23
:1003E00085B7886085BF8BB780688BBF78940E9483
:1003F000990280B384FDFDCFAFE5BAEE1197F1F716
:1004000000C0000010928E001092900010928F0099
:10041000F0CF1F920F920FB60F9211242F933F939C
:100420004F935F936F937F938F939F93AF93BF93FC
:10043000EF93FF9380919100909192000196909399
:100440009200809391008E33910509F043C0809112
:100450008E008F5F80938E008C3380F010928E0020
:10046000809190008F5F809390008C3338F01092D1
:10047000900080918F008F5F80938F001092920088
:100480001092910081E00E94490082E80E94490098
:1004900082E890E00E94370184EC0E94490060915C
:1004A0008F0070E080E090E00E944D018AE30E949E
:1004B000DD006091900070E080E090E00E944D01CE
:1004C0008AE30E94DD0060918E0070E080E090E0A1
:1004D0000E944D01FF91EF91BF91AF919F918F913C
:1004E0007F916F915F914F913F912F910F900FBE30
:1004F0000F901F9018951F920F920FB60F92112414
:100500008F9389B78E7F89BF8F910F900FBE0F9009
:100510001F9018951F920F920FB60F9211248F9370
:1005200089B7816089BF8F910F900FBE0F901F9088
:10053000189585E883BF89B7816089BF789408954D
:100540008DE883BF88EC8CBF89B7826089BF7894BF
:100550000895A1E21A2EAA1BBB1BFD010DC0AA1F04
:10056000BB1FEE1FFF1FA217B307E407F50720F01C
:10057000A21BB30BE40BF50B661F771F881F991F97
:100580001A9469F760957095809590959B01AC01E0
:0A059000BD01CF010895F894FFCFDC
:10059A005044322D3E5061757365005044332D3EF0
:1005AA00526573756D65005044342D3E526573650E
:0E05BA00740053746F70205761746368000002
:00000001FF
